:0600000010C0FECFFDCF91
:10000600FCCFFBCFFACFF9CFF8CF1EC0F6CFF5CF96
:10001600F4CFF3CFF2CFF1CFF0CFEFCFF894EE27B6
:10002600ECBBE5BF8DE0A2E0ED938A95E9F780E8A9
:10003600A0E6ED938A95E9F7E0E0E3BBE4BBE5BB18
:10004600EFEDEDBFC8E6C2C0EA93F3D0999AE99105
:100056001895AA93E881EF73E7B98BE18A95F1F7D2
:10006600369A349BFECF349AE4B1F5B121960895C1
:10007600999B9BC02597E0E0E883E983EA83EB83BD
:10008600DDD09998E32DA8E6DCD0EF93A1E0E1DF7F
:10009600AF91DAD0ACE7D5D0EF93A2E0DADFAF913B
:1000A600D3D0A0E9CED0EF93A3E0D3DFAF91CCD0ED
:1000B600A4EAC7D0EF93A7E0CCDFAF91ED93FC9312
:1000C6003394EAE03E1610F03324989A98993AC091
:1000D600B5D0AC81A31518F4BBD0C6D0FACFC8D022
:1000E600CAD0CCD010F0D2D0D4D0D6D0D8D0DBD095
:1000F600AC81A31518F4E9D0B7D0FACFB9D0F1D0B6
:10010600F3D0FCD010F4E0E04DC098D0AC81A3153C
:1001160018F4FED0A9D0FACFABD0E3D0E5D0EED01C
:1001260010F4E0E03FC08AD0AC813A1618F0FBD05C
:100136009BD0FACF9DD0D5D0D7D0E0D010F4E0E058
:1001460031C02FC07BD0FAD018F482D08DD0FBCF2F
:1001560092D0F7D093D010F099D09BD09DD09FD05D
:10016600A2D0ECD018F4B1D07FD0FBCFEDD0C6D062
:1001760010F4E0E017C062D0E1D018F4C9D074D012
:10018600FBCFE2D0BBD010F4E0E00CC057D0D6D005
:1001960018F4C9D069D0FBCFD7D0B0D010F4E0E0C6
:1001A60001C0E1E0259608952596E2E008951A93A8
:1001B60012E05EDF1E2F103019F4C09AC19A04C0F7
:1001C600113011F4C098C19819910895E0E8E6BD80
:1001D600E0E0E6BDEABBEBBBEFE0E7BBE0E0E8BB97
:1001E600E0BFE3BFE2BFE6BFECBFEFBDE3E0EEBDBD
:1001F60020D0E0E0E5BDE4BDEBBDEABDE9BDE8BD6C
:10020600E9BFE1E0ECB9E0E0E5BFEBBFEDB9E0E85E
:10021600E8B9E0E0E1B9E1E7E1B9E0E0E7B9E3E850
:10022600E6B9E0E0E3B9789492D091D0C0DFFECF92
:10023600FFCFEFECEDBDECE2ECBD0895E0E0EC8322
:100246000895EE0FEA0F0895ED93FC93E32D0895BC
:10025600EC81A4EAEE0FAE0F87D1A881B981EA0F2F
:10026600FB1FE883F9830895EC81EF5FEC83089523
:10027600EC81F0E00895A881B981089562D1E88300
:10028600F983F9DFA834E3E0BE070895E8E4F3E074
:100296000895E883F9830895E881F9810895AAE02D
:1002A600B0E03FD10895DF01F1DF4BD16627772714
:1002B600C6D0A0E0B0E080E091E4EFD087D066271A
:1002C6007727E05BFF4FE5DFB9CFEC81A8E6EE0FBD
:1002D600AE0F4AD1AA81BB81EA0FFB1FEA83FB83DB
:1002E6000895AA81BB8108952CD1EA83FB83A5E0FA
:1002F600B0E017D1A6E0B0E014D1D1CF08D1EF2FEE
:10030600F0E0EA83FB83C8DFECDFEA17FB0708951A
:10031600EC81ACE7EE0FAE0F27D1E3DFEA0FFB1F50
:10032600EA83FB830895EC81A0E9EE0FAE0F1CD1A2
:10033600D8DFEA0FFB1FEA83FB830895AC81AA305E
:100346000895EAE0F0E00895CCDFFBDFCDCFC09A58
:10035600A4E6B0E004D0C098A4E6B0E000C01096D1
:1003660039F080ED97E00197F1F7A8951197C9F755
:100376000895552342F4503811F4E0FF04C0319635
:10038600691F791F6BF050E8572711F45F9373C00C
:100396005F3F31F0660F000C57956795752F0895EE
:1003A6005F9300200AF073C06CC050E8192E152226
:1003B600880F991F9527550F879550E8072E052218
:1003C600660F771F7527550F67950895689401C0C6
:1003D600E8945F93F2DF703818F07F3F08F44BC063
:1003E60056E1571BAAF4519558300EF4593030F0A7
:1003F600EFEFFFEF6FEF7FE777F91AC07727552307
:10040600B9F0EE0FFF1F661F771F5A95D1F710C080
:100416007727583028F0EF2FF62F672F5850F9CF4F
:10042600552331F076956795F795E7955A95D1F767
:1004360000200AF464D05F910895689401C0E8949E
:10044600309760407040B1F0002426F0772312F414
:10045600009455D0172E7EE1112032F07A95EE0FDA
:10046600FF1F661F111CF9CFEF2FF62F612D5F932B
:100476008ADF5F910895EE27FF27662777275F912A
:100486000895EFEFFFEF6FE77FEF5F910895EFEFCE
:10049600FFEF6FE77FE75F9108955F9386DF703820
:1004A60051F3903841F301240894791F23F41CF387
:1004B60000203AF3ECCF3F934F9311243327442780
:1004C600552798E1330F441F551FEE1FFF1F661F68
:1004D60030F43A0F4B1F581FE11DF11D611D9A950F
:1004E60089F74F913F9166232AF0550FEE1FFF1FA4
:1004F600661F02C07395E3F23CDF5F910895F095A5
:1005060060957095E195FF4F6F4F7F4F0895F69573
:10051600E795F695E79508956F2F660F660B762F8C
:1005260008950A2E1B2E81E1AA27BB1B05C010F4D5
:10053600A00DB11DB695A795F795E7958A95B9F7DC
:1005460008950024112490E1AA0FBB1F001C111C62
:100556000E1A1F0A18F40E0E1F1E01C0A1609A95EE
:1005660099F7FD01D0010895ED91FC91AA950895A2
:00000001FF
