:0800000010C0FECFFDCFFCCFC4
:10000800FBCFFACFF9CFF8CF1EC0F6CFF5CFF4CF9C
:10001800F3CFF2CFF1CFF0CFEFCFF894EE27ECBBD0
:10002800E5BF8DE0A2E0ED938A95E9F780E8A0E6C8
:10003800ED938A95E9F7E0E0E3BBE4BBE5BBEFEDC0
:10004800EDBFC8E6C8C0EA93F7D0999AE991189528
:10005800AA93E881EF73E7B98BE18A95F1F7369AAD
:10006800349BFECF349AE4B1F5B121960895999B5B
:10007800A1C02597E0E0E883E983EA83EB83E1D038
:100088009998E32DA8E6E0D0EF93A1E0E1DFAF91E6
:10009800DED0ACE7D9D0EF93A2E0DADFAF91D7D0CA
:1000A800A0E9D2D0EF93A3E0D3DFAF91D0D0A4EAF8
:1000B800CBD0EF93A7E0CCDFAF91ED93FC933394D3
:1000C800EAE03E1610F03324989A98993DC0B9D0CA
:1000D800AC81A31518F4BFD0CAD0FACFCCD0CED0FB
:1000E800D0D010F0D6D0D8D0DAD0DCD0DFD0AC81E8
:1000F800A31518F4E3D0BBD0FACFBDD0EBD0EDD028
:10010800D1D0F2D010F4E0E052C09BD0AC81A3155E
:1001180018F4F4D0ACD0FACFAED0DCD0DED0C2D058
:10012800E3D010F4E0E043C08CD0AC813A1618F06C
:10013800F0D09DD0FACF9FD0CDD0CFD0B3D0D4D0EF
:1001480010F4E0E034C032C07CD0EED018F483D094
:100158008ED0FBCF93D0EBD094D010F09AD09CD017
:100168009ED0A0D0A3D0E0D018F4A8D080D0FBCFE8
:10017800E1D098D0B9D010F4E0E019C062D0D4D062
:1001880018F4BCD074D0FBCFD5D08CD0ADD010F43F
:10019800E0E00DC056D0C8D018F4BBD068D0FBCF73
:1001A800C9D080D0A1D010F4E0E001C0E1E02596EC
:1001B80008952596E2E008951A9312E058DF1E2F5D
:1001C800103019F4C09AC19A04C0113011F4C098C3
:1001D800C19819910895E0E8E6BDE0E0E6BDEABB04
:1001E800EBBBEFE0E7BBE0E0E8BBE0BFE3BFE2BFAB
:1001F800E6BFECBFEFBDE3E0EEBD1ED0E0E0E5BD3D
:10020800E4BDEBBDEABDE9BDE8BDE9BFE1E0ECB99D
:10021800E0E0E5BFEBBFEDB9E0E8E8B9E0E0E1B95F
:10022800EEE8E1B9E0E0E7B9E3E8E6B9E0E0E3B930
:100238007894C2DFFECFFFCFEFECEDBDECE2ECBD72
:100248000895E0E0EC830895EE0FEA0F0895ED932A
:10025800FC93E32D0895EC81A4EAEE0FAE0F9CD039
:10026800A881B981EA0FFB1FE883F9830895EC811F
:10027800EF5FEC830895EC81F0E00895A881B981DF
:10028800089577D0E883F983F9DFA834E3E0BE075F
:100298000895E8E4F3E00895E883F9830895E88190
:1002A800F9810895AAE0B0E054D00895DF01F1DFA4
:1002B80060D043D0E05BFF4FEFDFC3CFEC81A8E60F
:1002C800EE0FAE0F69D0AA81BB81EA0FFB1FEA834C
:1002D800FB830895AA81BB8108954BD0EA83FB83F1
:1002E800A5E0B0E036D0DECF2FD0EF2FF0E0EA83E4
:1002F800FB83D5DFEFDFEA17FB070895EC81ACE756
:10030800EE0FAE0F49D0E6DFEA0FFB1FEA83FB834F
:100318000895EC81A0E9EE0FAE0F3ED0DBDFEA0FC7
:10032800FB1FEA83FB830895AC81AA300895EAE0B5
:10033800F0E00895CFDFFBDFD0CFEE0FFF1FEE0F09
:10034800FF1FEE0FFF1F0895F695E795F695E795C1
:1003580008950A2E1B2E81E1AA27BB1B05C010F4A5
:10036800A00DB11DB695A795F795E7958A95B9F7AC
:1003780008950024112490E1AA0FBB1F001C111C32
:100388000E1A1F0A18F40E0E1F1E01C0A1609A95BE
:1003980099F7FD01D0010895ED91FC91AA95089572
:00000001FF
