:0E00000016C0FECFFDCFFCCFFBCFFACFF9CF5D
:10000E00F8CF36C0F6CFF5CFF4CFF3CFF2CFF1CF96
:10001E00F0CFEFCF0000000004000200220000002D
:10002E00F894EE27ECBBE5BF8DE0A2E0ED938A9548
:10003E00E9F780E8A0E6ED938A95E9F7E6E2F0E0CD
:10004E0085919591009761F0A591B59105901590C8
:10005E00BF01F00105900D920197E1F7FB01F0CF82
:10006E00E0E0E3BBE4BBE5BBEFEDEDBFC8E6ABC044
:10007E00EA93E2D09C9AE9911895AA93E881EF73DE
:10008E00E7B98BE18A95F1F7369A349BFECF349A15
:10009E00E4B1F5B1219608951A9310E0E72DA8E684
:1000AE00D0D0EF93A1E0E9DFAF91CED0ACE7C9D0CD
:1000BE00EF93A2E0E2DFAF91C7D0A0E9C2D0EF93F9
:1000CE00A3E0DBDFAF91C0D0A4EABBD0EF93A7E0F3
:1000DE00D4DFAF91ED93FC93E9E07E1610F49B9B79
:1000EE0001C02FC010E0711618F0B2D01F5FFBCF09
:1000FE00B7D0D201DED02F0110E0711618F0B3D0B8
:10010E001F5FFBCFADD0B7D010F4989A01C098986E
:10011E0010E0711618F0B5D01F5FFBCFA1D0ABD099
:10012E0010F4999A01C0999810E0711618F0B1D098
:10013E001F5FFBCF95D09FD010F49A9A01C09A986A
:10014E0031C09B9A10E01A3018F482D01F5FFBCF9B
:10015E00D201A7D02F0110E01A3018F484D01F5FFF
:10016E00FBCFD1019ED0A1D010F4989A01C09898DF
:10017E0010E01A3018F485D01F5FFBCFD10191D05B
:10018E0094D010F4999A01C0999810E01A3018F48E
:10019E0080D01F5FFBCFD10184D087D010F49A9A04
:1001AE0001C09A987394EAE07E1608F077241991AC
:1001BE000895989904C0999902C09A9B02C0C19A59
:1001CE0001C0C1980895E0E8E6BDE0E0E6BDEABBF7
:1001DE00EBBBEBE0E7BBE0E0E8BBE0BFE3BFE2BFB9
:1001EE00E6BFECBFEFBDE3E0EEBD26D0E0E0E5BD3F
:1001FE00E4BDEBBDEABDE9BDE8BDE9BFE1E0ECB9A8
:10020E00E0E0E5BFEBBFEDB9E0E8E8B9E0E0E1B969
:10021E00E1E7E1B9E0E0E7B9E3EAE6B9E0E0E3B946
:10022E00E8E1E1BDE8E0E1BD78949C9B02C034DFDB
:10023E009C98BFDFFACFFFCFEFECEDBDECE2ECBD4B
:10024E000895EE0FEA0F0895ED93FC93E72D0895B0
:10025E00E12FA4EAEE0FAE0F3FD04E0E5F1E0895B3
:10026E00E12FF0E00895E12FA8E6EE0FAE0F34D0A7
:10027E002E0E3F1E0895D1011CD01F0142145304AF
:10028E000895E12FACE7EE0FAE0F26D02E0E3F1ED7
:10029E000895E12FA0E9EE0FAE0F1ED02E0E3F1ED9
:1002AE000895EAE0F0E005D008951F0142145304CA
:1002BE0008950024112490E1AA0FBB1F001C111CED
:1002CE000E1A1F0A18F40E0E1F1E01C0A1609A9579
:1002DE0099F7FD01D0010895ED91FC91AA9508952D
:00000001FF
