:0200000015C029
:10000200FECFFDCFFCCFFBCFFACFF9CFF8CF23C085
:10001200F6CFF5CFF4CFF3CFF2CFF1CFF0CFEFCFD2
:1000220000000000000000000000F894EE27ECBB86
:10003200E5BF8DE0A2E0ED938A95E9F780E8A0E6BE
:10004200ED938A95E9F7E0E0E3BBE4BBE5BBEFEDB6
:10005200EDBFCDE671C0EA93EFB7EA939FD0999ACC
:100062003394EAE03E1608F033249A9B08C0C19A02
:10007200E5E03E1610F4C09A01C0C09802C0C098D4
:10008200C198E991EFBFE9911895AA93E881EF73BE
:10009200E7B98BE18A95F1F7369A349BFECF349A11
:1000A200E4B1F5B121960895999B3EC0299789E064
:1000B200A0E0E2E2F0E00ED1A7E075D078D079D0EE
:1000C2007AD0E8E4F3E060E070E0D0D0ACE0B0E0F9
:1000D20080E090E0ABD0E05BFF4F6F4F7F4F67D087
:1000E200A1E061D070D074D082D018F49A9A4424DE
:1000F20019C0A2E058D067D06BD079D018F49A9A80
:10010200442410C0A3E04FD05ED062D070D018F467
:100112009A9A442407C04394EAE0E41518F49A98A2
:10012200E6E04E2E99982996E2E008951A9312E09D
:10013200BBDF1E2F19910895E0E8E6BDE0E0E6BDC1
:10014200EABBEBBBEFE0E7BBE0E0E8BBE0BFE3BF4D
:10015200E2BFE6BFECBFEFBDE3E0EEBD1FD0E0E0E3
:10016200E5BDE4BDEBBDEABDE9BDE8BDE9BFE5BF64
:10017200EBBFEDB9E0E8E8B9E0E0E1B9E1E7E1B908
:10018200E0E0E7B9E3E8E6B9E0E0E3B978943CD02F
:100192003BD0E1E0ECB9CADFFECFFFCFEFECEDBD23
:1001A200ECE2ECBD089571DF66277727089588D0C9
:1001B200089581D00895AAE0B0E080E090E036D0C2
:1001C200DF01CB010895EC83FD836E837F83089565
:1001D200EC81FD816E817F81A5E0B0E080E090E05E
:1001E20025D0A6E0B0E080E090E020D0E4CFE0E0CF
:1001F200F4E060E070E03AD0E6DFDBDFAC81BD81A5
:100202008E819F8162D00895C09AA0E9B1E004D0A6
:10021200C098A0E9B1E000C0109639F080ED97E0F7
:100222000197F1F7A8951197C9F708953F934F9356
:100232005F9351E20A2E1B2E382F492FAA27BB2784
:100242008827991B09C020F4A00DB11D831F941F9C
:1002520096958795B795A79577956795F795E795BD
:100262005A9589F75F914F913F9108953F934F932C
:100272005F93002411244427552730E2AA0FBB1FA5
:10028200881F991F001C111C441F551F0E1A1F0A9C
:10029200460B570B28F40E0E1F1E461F571F01C098
:1002A200A1603A9559F7FD01BC01D001CA015F91E5
:1002B2004F913F910895E881F9816A817B81089588
:1002C200E883F9836A837B830895EA17FB0768074B
:1002D20079070895AC0F05900D928A95E1F708957C
:00000001FF
