:0C00000010C0FECFFDCFFCCFFBCFFACF2D
:10000C00F9CFF8CF1EC0F6CFF5CFF4CFF3CFF2CFA8
:10001C00F1CFF0CFEFCFF894EE27ECBBE5BF8DE03E
:10002C00A2E0ED938A95E9F780E8A0E6ED938A9536
:10003C00E9F7E0E0E3BBE4BBE5BBEFEDEDBFC8E601
:10004C00AEC0EA93E1D0999AE9911895AA93E88108
:10005C00EF73E7B98BE18A95F1F7369A349BFECFB3
:10006C00349AE4B1F5B121960895999B8BC02597EC
:10007C00E0E0E883E983EA83EB83CBD09998E32D26
:10008C00A8E6CAD0EF93A1E0E1DFAF91C8D0ACE70E
:10009C00C3D0EF93A2E0DADFAF91C1D0A0E9BCD01E
:1000AC00EF93A3E0D3DFAF91BAD0A4EAB5D0EF932E
:1000BC00A7E0CCDFAF91ED93FC933394EAE03E16CE
:1000CC0010F03324989A989932C0A3D0AC81A31520
:1000DC0018F4A9D0B4D0FACFB6D0A881B981B6D0D3
:1000EC00AC81A31518F4B6D0AAD0FACFACD0BED040
:1000FC00C0D010F4E0E043C08CD0AC81A31518F450
:10010C00C1D09DD0FACF9FD0B1D0B3D010F4E0E0E5
:10011C0036C07FD0AC813A1618F0BFD090D0FACF51
:10012C0092D0A4D0A6D010F4E0E029C027C071D0A2
:10013C00BFD018F478D083D0FBCFA881B981BBD0C5
:10014C0085D0B6D018F486D07AD0FBCFB7D010F4C7
:10015C00E0E015C05ED0ACD018F494D070D0FBCFDA
:10016C00ADD010F4E0E00BC054D0A2D018F495D070
:10017C0066D0FBCFA3D010F4E0E001C0E1E02596FF
:10018C0008952596E2E008951A9312E06EDF1E2F73
:10019C00103011F4C29A01C0C29819910895E0E888
:1001AC00E6BDE0E0E6BDEABBEBBBEBE0E7BBE0E0C5
:1001BC00E8BBE0BFE3BFE2BFE6BFECBFEFBDE3E0EF
:1001CC00EEBD22D0E0E0E5BDE4BDEBBDEABDE9BD8E
:1001DC00E8BDE9BFE1E0ECB9E0E0E5BFEBBFEDB9AC
:1001EC00E0E8E8B9E0E0E1B9E1E7E1B9E0E0E7B97E
:1001FC00E3EAE6B9E0E0E3B9E8E1E1BDE8E0E1BD5E
:10020C007894C2DFFECFFFCFEFECEDBDECE2ECBD9E
:10021C000895E0E0EC830895EE0FEA0F0895ED9356
:10022C00FC93E32D0895EC81A4EAEE0FAE0F5CD0A5
:10023C00A881B981EA0FFB1FE883F9830895EC814B
:10024C00EF5FEC830895EC81F0E008953AD0E883F9
:10025C00F983DFCFEC81A8E6EE0FAE0F45D0AA8173
:10026C00BB81EA0FFB1FEA83FB830895AA81BB8144
:10027C00089527D0EA83FB83E881F981F7DFEA1739
:10028C00FB070895EC81ACE7EE0FAE0F2DD0EEDF3F
:10029C00EA0FFB1FEA83FB830895EC81A0E9EE0FC4
:1002AC00AE0F22D0E3DFEA0FFB1FEA83FB83089536
:1002BC00AC81AA300895EAE0F0E00895D7DFFBDFC7
:1002CC00D8CF0024112490E1AA0FBB1F001C111CD5
:1002DC000E1A1F0A18F40E0E1F1E01C0A1609A956B
:1002EC0099F7FD01D0010895ED91FC91AA9508951F
:00000001FF
